:1000000007EF00F0FF00FF005F82C6ED03F050EF46
:100010000AF0FF00FF00FF00FF00FF00FF00FF00ED
:1006000000416C6C6F776564206166746572203A96
:100610002000416C6C6F77656420466F72203A2031
:10062000004E6F7420416C6C6F77656400466F728A
:100630002057616C6B696E6700202025326420733F
:1006400065630047004E0000010E216E1CBE2BEFBB
:1006500003F02EEF03F0010E2FEF03F0000E226ED9
:100660005BC01FF05CC020F02250D8B43AEF03F01A
:100670003CEF03F053EF03F01F06D8A020062250F2
:10068000D8A445EF03F047EF03F04DEF03F0000E61
:100690001E6E2B0E1D6E51EF03F0000E1E6E2D0E02
:1006A0001D6E1DC022F0000E246E1F0E236E000E64
:1006B0000001A66F89EF03F02306D8A0240623507B
:1006C000870FD96EDA6A1BC001F01CC002F0000E61
:1006D000046E0A0E036EB0EC05F001C007F002C014
:1006E00008F0FBEC09F00750300FDF6E000E216EB2
:1006F0001F06D8A020061BC001F01CC002F0000E8F
:10070000046E0A0E036EF1EC04F001C01BF002C08F
:100710001CF024BE94EF03F0245008E12304D8A079
:1007200094EF03F096EF03F0A7EF03F01B501C10BB
:10073000D8A49DEF03F09FEF03F05CEF03F021508E
:10074000D8A4A5EF03F0A7EF03F05CEF03F022506D
:10075000D8B4ADEF03F0AFEF03F0B8EF03F023062A
:10076000D8A024062350870FD96EDA6A22C0DFFF93
:1007700019C011F01AC012F02350870F136E1FC05A
:1007800014F020C015F0AEEC06F012000600E9CF20
:1007900062F0EACF63F0E1CF64F0E2CF65F0D9CF49
:1007A00066F0DACF67F0F3CF68F0F4CF69F0F6CFF8
:1007B0006AF0F7CF6BF0F8CF6CF0F5CF6DF09EAA32
:1007C000E4EF03F0E6EF03F04BEF04F071EC0AF016
:1007D0005E6E9E9A470E5E18D8A4F1EF03F0F3EF19
:1007E00003F047EF04F0430E016EB8EC08F0120E70
:1007F0008A6E000E586E050E576E010E446E57C07D
:1008000045F058C046F0E3EC08F00B0E0001616FB4
:10081000260E606F5D0EE82EFED7602FFCD7612F8D
:10082000FAD700D05706D8A0580658BE1CEF04F0DF
:100830001AEF04F0FDEF03F0090E8A6E000E5A6EF7
:10084000140E596E120E446E59C045F05AC046F04F
:10085000E3EC08F00B0E0001616F260E606F5D0E79
:10086000E82EFED7602FFCD7612FFAD700D05906AB
:10087000D8A05A065ABE41EF04F03FEF04F022EF31
:1008800004F0140E8A6EA7EC09F04BEF04F0450E4D
:10089000016EB8EC08F06DC0F5FF6CC0F8FF6BC0DE
:1008A000F7FF6AC0F6FF69C0F4FF68C0F3FF67C0D6
:1008B000DAFF66C0D9FF65C0E2FF64C0E1FF63C034
:1008C000EAFF62C0E9FF5F9211002750D96EDA6A31
:1008D000DFCFF6FF060EF76E0800F550250AD8A404
:1008E00074EF04F076EF04F0DDEF04F02750D96EDA
:1008F000DA6ADF2A000E5C6E000E5B6E5BC05DF094
:1009000000018569866927C007F028C008F05BEC04
:1009100006F007C05BF008C05CF05CBE94EF04F02A
:1009200092EF04F099EF04F05D805B6C5C1ED8B030
:100930005C2A2750D96EDA6ADF502D6E2DC0F6FF83
:10094000060EF76E0800F550640AD8B4AAEF04F05A
:10095000ACEF04F0BAEF04F02DC0F6FF060EF76E10
:100960000800F550690AD8A4B8EF04F0BAEF04F013
:10097000D7EF04F02850D96EDA6A020EDF26DF5C6A
:10098000D96EDA6ADECF29F0DECF2AF02750D96E91
:10099000DA6A2D28DF6E25C019F026C01AF029C0AA
:1009A0001BF02AC01CF024EC03F0F0EF04F02750F9
:1009B000D96EDA6ADF2AF0EF04F02750D96EDA6ACE
:1009C000DFCFF6FF060EF76E0800F550026E036AE1
:1009D00025C004F026C005F053EC05F0D7EF04F075
:1009E0001200000E066E04BEFAEF04F0F8EF04F0F9
:1009F00000EF05F0036C041ED8B0042A010E066E49
:100A000002BE07EF05F005EF05F00DEF05F0016CF4
:100A1000021ED8B0022A010E061A000E086E000E41
:100A2000076E03500410D8B418EF05F01AEF05F064
:100A300042EF05F0010E056E22EF05F0D890033667
:100A40000436052A04AE27EF05F029EF05F01EEF66
:100A500005F0D890073608360350015C0450025860
:100A6000D8A035EF05F037EF05F03CEF05F0035067
:100A7000015E0450025A0780D89004320332052EDA
:100A800029EF05F00650D8B448EF05F04AEF05F01D
:100A90004EEF05F0076C081ED8B0082A07C001F019
:100AA00008C002F0120004500510D8B45AEF05F047
:100AB0005CEF05F065EF05F004500510D8A463EF76
:100AC00005F065EF05F06AEF05F0025015EC0AF04D
:100AD000AFEF05F020EE0AF00450D9260550DA22D7
:100AE000DE50DE10D8B477EF05F079EF05F094EF23
:100AF00005F020EE0AF00450D9260550DA2210EE57
:100B000003F00450E1260550E222DE50E65CE65098
:100B1000800A0A6EDE50800A0A58D8B092EF05F0BB
:100B200094EF05F0AFEF05F020EE03F00450D92666
:100B30000550DA22DF50066E04C0D9FF05C0DAFF87
:100B4000DF500624D96EDA6A02C0DFFF20EE03F020
:100B50000450D9260550DA22DE2A000EDD221200CA
:100B6000000E066E02BEB9EF05F0B7EF05F0BFEF5D
:100B700005F0016C021ED8B0022A010E066E04BEFA
:100B8000C6EF05F0C4EF05F0CAEF05F0036C041ED4
:100B9000D8B0042A03500410D8B4D1EF05F0D3EF35
:100BA00005F0F7EF05F0010E056EDBEF05F0D890CC
:100BB00003360436052A04AEE0EF05F0E2EF05F057
:100BC000D7EF05F00350015C04500258D8A0EBEFBA
:100BD00005F0EDEF05F0F1EF05F00350015E045074
:100BE000025AD89004320332052EE2EF05F0065087
:100BF000D8B4FDEF05F0FFEF05F003EF06F0016C50
:100C0000021ED8B0022A01C001F002C002F0120098
:100C1000000E0001766F000E776F000E786F000EE9
:100C2000796F7251731174117511D8B41AEF06F0FF
:100C30001CEF06F052EF06F0010E7A6F26EF06F079
:100C4000D89072377337743775377A2B75AF2BEFAF
:100C500006F02DEF06F020EF06F0D89076377737C4
:100C60007837793772516E5D73516F59745170597D
:100C700075517159D8A03FEF06F041EF06F04AEFE9
:100C800006F072516E5F73516F5B7451705B7551FA
:100C9000715B7681D89075337433733372337A2FE6
:100CA0002DEF06F076C06EF077C06FF078C070F070
:100CB00079C071F01200000E0B6E000E0A6E075024
:100CC000D96EDA6ADFCFF6FF060EF76E0800F55030
:100CD0002A0AD8A46EEF06F070EF06F096EF06F041
:100CE0000750D96EDA6ADF2A0850D96EDA6A020E26
:100CF000DF26DF5CD96EDA6ADECF0AF0DECF0BF0DA
:100D0000A9EF06F00AC001F00BC002F0000E046E5D
:100D10000A0E036E3DEC0AF0095001240A6E000E23
:100D200002200B6E0750D96EDA6ADF2A0750D96E9F
:100D3000DA6ADFCFF6FF060EF76E0800F550D00F27
:100D4000096E090E0964A7EF06F0A9EF06F082EF1D
:100D500006F00AC007F00BC008F012005DA0B3EF68
:100D600006F0B5EF06F0BDEF06F013C00BF011C0B2
:100D70000CF012C00DF049EC09F015BEC4EF06F0FE
:100D8000C2EF06F0C8EF06F0000E156E000E146EEE
:100D9000000E186E000E176EDAEF06F0000E036EEE
:100DA000200E026E11C004F012C005F053EC05F0E5
:100DB000174A182A1450175C1850800A166E1550DE
:100DC000800A1658D8A0E7EF06F0E9EF06F0CEEF5C
:100DD00006F05DB0EEEF06F0F0EF06F0F8EF06F08B
:100DE00013C00BF011C00CF012C00DF049EC09F06B
:100DF0001200000E0001776F000E766F1CEF07F0F7
:100E0000000176517225746F77517321756F74C02C
:100E1000F6FF75C0F7FFF86A050EF76403D0080007
:100E2000F55005D0F6CFE9FFF7CFEAFFEF5088EC99
:100E300009F00001764B772B76517225746F77514C
:100E40007321756F74C0F6FF75C0F7FFF86A050E61
:100E5000F76403D00800F55005D0F6CFE9FFF7CFCF
:100E6000EAFFEF500009D8A438EF07F03AEF07F097
:100E700000EF07F01200000E0A6E000E096E5BEF25
:100E800007F009500524076E0A500620086E07C0B7
:100E9000F6FF08C0F7FFF86A050EF76403D00800F4
:100EA000F55005D0F6CFE9FFF7CFEAFFEF50C4ECDD
:100EB00009F0094A0A2A09500524076E0A5006203B
:100EC000086E07C0F6FF08C0F7FFF86A050EF76462
:100ED00003D00800F55005D0F6CFE9FFF7CFEAFFC1
:100EE000EF500009D8A477EF07F079EF07F041EF52
:100EF00007F01200000E5AEC08F0340E0001716F7A
:100F0000F10EE82EFED7712FFCD700D0030E2AEC8D
:100F10000AF00D0E0001716FFB0EE82EFED7712F47
:100F2000FCD700D0030E2AEC0AF01D0E0001716FF1
:100F3000910EE82EFED7712FFCD7030E2AEC0AF093
:100F4000020E2AEC0AF0020E2AEC0AF0080E2AEC35
:100F50000AF0000E2AEC0AF00C0E2AEC0AF0000E41
:100F60002AEC0AF0060E2AEC0AF01200000EB86E07
:100F7000900EAB6E240EAC6E000E00016E6F120E62
:100F80006F6F7A0E706F000E716F7B517D6F7C51A9
:100F90007E6F7F6B806B040ED8907D377E377F37F6
:100FA0008037E82ECCEF07F07DC072F07EC073F082
:100FB0007FC074F080C075F008EC06F0FF0E0001F1
:100FC0006E25816FFF0E6F21826FFF0E7021836F80
:100FD000FF0E7121846F81C0AFFF82C0B0FF12008D
:100FE0000001726F00017205D8A4F9EF07F0FBEF62
:100FF00007F00DEF08F071517F0F756F75390F0B0A
:10100000736F75510F0B746F73512AEC0AF0000166
:1010100074512AEC0AF026EF08F0020E7219D8A4D7
:1010200014EF08F016EF08F026EF08F07151BF0F2B
:10103000756F75390F0B736F75510F0B746F73519B
:101040002AEC0AF0000174512AEC0AF01200056E35
:101050000504D8A42EEF08F030EF08F041EF08F0B7
:1010600004507F0F086E08380F0B066E08500F0BE8
:10107000076E065061EC0AF0075061EC0AF059EF78
:1010800008F0020E0518D8A448EF08F04AEF08F05F
:1010900059EF08F00450BF0F086E08380F0B066EAA
:1010A00008500F0B076E065061EC0AF0075061EC18
:1010B0000AF0120000016E6F00016EA162EF08F0ED
:1010C00064EF08F067EF08F08B8468EF08F08B940A
:1010D0006EA36DEF08F06FEF08F072EF08F08B86EB
:1010E00073EF08F08B966EA578EF08F07AEF08F0B2
:1010F0007DEF08F08B887EEF08F08B986EA783EF6A
:1011000008F085EF08F088EF08F08B8A89EF08F087
:101110008B9A1200016E01A090EF08F092EF08F098
:1011200095EF08F08B8496EF08F08B9401A29BEF6B
:1011300008F09DEF08F0A0EF08F08B86A1EF08F013
:101140008B9601A4A6EF08F0A8EF08F0ABEF08F02B
:101150008B88ACEF08F08B9801A6B1EF08F0B3EFE5
:1011600008F0B6EF08F08B8AB7EF08F08B9A120000
:10117000000E046E000E036ED1EF08F09EA8C3EFC0
:1011800008F0C5EF08F0BEEF08F001500324026E2E
:1011900002C0F6FF060EF76E0800F5CFADFF034A5A
:1011A000042A01500324026E02C0F6FF060EF76EF9
:1011B0000800F5500009D8A4E0EF08F0E2EF08F0CD
:1011C000BEEF08F0120083EC0AF0010E046E010E6F
:1011D00027EC08F044C005F00550D8A4060E066EB2
:1011E0003BEC07F0470E336E390E346E45C035F0D8
:1011F00046C036F0E0EC09F0010E046E020E27EC5A
:1012000008F0470E056E066A3BEC07F012007CEC16
:101210000AF0010E0001716F010EF0EC07F0210ED3
:101220000001726F7251D8A4060E736FF9EC06F0CC
:10123000010E0001716F020EF0EC07F02D0E00019F
:10124000726F7251D8A4060E736FF9EC06F012009B
:1012500030C032F036EF09F02EC025F02FC026F056
:10126000320E276E31C028F065EC04F032C0F6FF74
:10127000060EF76E0800F5500009D8A442EF09F0F9
:1012800044EF09F02CEF09F0000E2F6E000E2E6EC9
:101290001200000E106E000E0F6E5AEF09F00EC015
:1012A00002F0036A0CC004F00DC005F053EC05F029
:1012B0000F4A102A0B500F24D96EDA6ADF500E6ED7
:1012C0000E50D8A466EF09F068EF09F04FEF09F06F
:1012D0001200800E946E000E936E700ED36E070E89
:1012E000B46E0F0EC16E140E8A6E9E9A250E00010A
:1012F0007C6F800E7B6FB6EC07F07AEC07F007ECA2
:1013000009F09D8AF28CF28E84EF09F007EF00F06D
:101310000001716F000171510F0B6F6F7151F00B74
:10132000706F8B8070390F0B5AEC08F08B821A0E9D
:10133000E82EFED700D08B9200016F515AEC08F0D6
:101340008B821A0EE82EFED700D08B92120083EC0F
:101350000AF0010E046E010E27EC08F0210E056E56
:101360000550D8A4060E066E3BEC07F0010E046E85
:10137000020E27EC08F02D0E056E0550D8A4060EBF
:10138000066E3BEC07F01200046E04500F0B026E69
:101390000450F00B036E8B8003380F0B8AEC08F0BF
:1013A0008B821A0EE82EFED700D08B9202508AEC68
:1013B00008F08B821A0EE82EFED700D08B92120016
:1013C000350E376E33C038F0000E3C6E000E3B6EAB
:1013D000000E436E000E426E380E2E6E2F6A34C021
:1013E00030F0370E316E28EC09F033503B24D96EC3
:1013F000DA6ADF6A120008BE00EF0AF002EF0AF0B4
:1014000008EF0AF007C007F008C008F014EF0AF070
:1014100007C009F008C00AF0091E0A1E094A0A2A74
:1014200009C007F00AC008F01200016EABA21BEF62
:101430000AF01DEF0AF01FEF0AF0AB98AB889EA8E8
:1014400024EF0AF026EF0AF01FEF0AF001C0ADFF0B
:101450009E9812000001706F8B90000170515AEC41
:1014600008F08B820B0E00016F6F620EE82EFED724
:101470006F2FFCD700008B92120001500302F3CFB4
:1014800005F0F4CF06F001500402F3500626025096
:101490000302F350062605C001F006C002F0120058
:1014A00000EE85F0220EEE6AE806FDE15E6A5D6AF6
:1014B0005C6A5B6A5F905F92000EF86E000169EFF4
:1014C00009F0036E8B9003508AEC08F08B820B0EB0
:1014D000026E620EE82EFED7022EFCD700D08B9251
:1014E0001200ABA276EF0AF078EF0AF07AEF0AF07A
:1014F000AB98AB88AE501200000E2AEC0AF0010E39
:101500002AEC0AF01200000E61EC0AF0010E61EC08
:101510000AF01200FF00FF00FF00FF00FF00FF00C5
:020000040030CA
:0E000000FF08191EFF8085FF0FC00FE00F40A4
:00000001FF
